{
  "_format": "hh-sol-artifact-1",
  "contractName": "DegenToken",
  "sourceName": "contracts/DegenToken.sol",
  "abi": [
    {
      "inputs": [],
      "stateMutability": "nonpayable",
      "type": "constructor"
    },
    {
      "anonymous": false,
      "inputs": [
        {
          "indexed": true,
          "internalType": "address",
          "name": "owner",
          "type": "address"
        },
        {
          "indexed": true,
          "internalType": "address",
          "name": "spender",
          "type": "address"
        },
        {
          "indexed": false,
          "internalType": "uint256",
          "name": "value",
          "type": "uint256"
        }
      ],
      "name": "Approval",
      "type": "event"
    },
    {
      "anonymous": false,
      "inputs": [
        {
          "indexed": true,
          "internalType": "address",
          "name": "previousOwner",
          "type": "address"
        },
        {
          "indexed": true,
          "internalType": "address",
          "name": "newOwner",
          "type": "address"
        }
      ],
      "name": "OwnershipTransferred",
      "type": "event"
    },
    {
      "anonymous": false,
      "inputs": [
        {
          "indexed": true,
          "internalType": "address",
          "name": "player",
          "type": "address"
        },
        {
          "indexed": false,
          "internalType": "uint256",
          "name": "amount",
          "type": "uint256"
        },
        {
          "indexed": false,
          "internalType": "uint256",
          "name": "option",
          "type": "uint256"
        }
      ],
      "name": "Redeem",
      "type": "event"
    },
    {
      "anonymous": false,
      "inputs": [
        {
          "indexed": true,
          "internalType": "address",
          "name": "from",
          "type": "address"
        },
        {
          "indexed": true,
          "internalType": "address",
          "name": "to",
          "type": "address"
        },
        {
          "indexed": false,
          "internalType": "uint256",
          "name": "value",
          "type": "uint256"
        }
      ],
      "name": "Transfer",
      "type": "event"
    },
    {
      "inputs": [
        {
          "internalType": "address",
          "name": "owner",
          "type": "address"
        },
        {
          "internalType": "address",
          "name": "spender",
          "type": "address"
        }
      ],
      "name": "allowance",
      "outputs": [
        {
          "internalType": "uint256",
          "name": "",
          "type": "uint256"
        }
      ],
      "stateMutability": "view",
      "type": "function"
    },
    {
      "inputs": [
        {
          "internalType": "address",
          "name": "spender",
          "type": "address"
        },
        {
          "internalType": "uint256",
          "name": "amount",
          "type": "uint256"
        }
      ],
      "name": "approve",
      "outputs": [
        {
          "internalType": "bool",
          "name": "",
          "type": "bool"
        }
      ],
      "stateMutability": "nonpayable",
      "type": "function"
    },
    {
      "inputs": [
        {
          "internalType": "address",
          "name": "account",
          "type": "address"
        }
      ],
      "name": "balanceOf",
      "outputs": [
        {
          "internalType": "uint256",
          "name": "",
          "type": "uint256"
        }
      ],
      "stateMutability": "view",
      "type": "function"
    },
    {
      "inputs": [
        {
          "internalType": "uint256",
          "name": "amount",
          "type": "uint256"
        }
      ],
      "name": "burn",
      "outputs": [],
      "stateMutability": "nonpayable",
      "type": "function"
    },
    {
      "inputs": [
        {
          "internalType": "address",
          "name": "account",
          "type": "address"
        },
        {
          "internalType": "uint256",
          "name": "amount",
          "type": "uint256"
        }
      ],
      "name": "burnFrom",
      "outputs": [],
      "stateMutability": "nonpayable",
      "type": "function"
    },
    {
      "inputs": [
        {
          "internalType": "uint256",
          "name": "_value",
          "type": "uint256"
        }
      ],
      "name": "burnTokens",
      "outputs": [],
      "stateMutability": "payable",
      "type": "function"
    },
    {
      "inputs": [],
      "name": "decimals",
      "outputs": [
        {
          "internalType": "uint8",
          "name": "",
          "type": "uint8"
        }
      ],
      "stateMutability": "pure",
      "type": "function"
    },
    {
      "inputs": [
        {
          "internalType": "address",
          "name": "spender",
          "type": "address"
        },
        {
          "internalType": "uint256",
          "name": "subtractedValue",
          "type": "uint256"
        }
      ],
      "name": "decreaseAllowance",
      "outputs": [
        {
          "internalType": "bool",
          "name": "",
          "type": "bool"
        }
      ],
      "stateMutability": "nonpayable",
      "type": "function"
    },
    {
      "inputs": [],
      "name": "getBalance",
      "outputs": [
        {
          "internalType": "uint256",
          "name": "",
          "type": "uint256"
        }
      ],
      "stateMutability": "view",
      "type": "function"
    },
    {
      "inputs": [],
      "name": "inGameItems",
      "outputs": [
        {
          "internalType": "string",
          "name": "",
          "type": "string"
        }
      ],
      "stateMutability": "pure",
      "type": "function"
    },
    {
      "inputs": [
        {
          "internalType": "address",
          "name": "spender",
          "type": "address"
        },
        {
          "internalType": "uint256",
          "name": "addedValue",
          "type": "uint256"
        }
      ],
      "name": "increaseAllowance",
      "outputs": [
        {
          "internalType": "bool",
          "name": "",
          "type": "bool"
        }
      ],
      "stateMutability": "nonpayable",
      "type": "function"
    },
    {
      "inputs": [
        {
          "internalType": "address",
          "name": "to",
          "type": "address"
        },
        {
          "internalType": "uint256",
          "name": "amount",
          "type": "uint256"
        }
      ],
      "name": "mint",
      "outputs": [],
      "stateMutability": "nonpayable",
      "type": "function"
    },
    {
      "inputs": [],
      "name": "name",
      "outputs": [
        {
          "internalType": "string",
          "name": "",
          "type": "string"
        }
      ],
      "stateMutability": "view",
      "type": "function"
    },
    {
      "inputs": [],
      "name": "owner",
      "outputs": [
        {
          "internalType": "address",
          "name": "",
          "type": "address"
        }
      ],
      "stateMutability": "view",
      "type": "function"
    },
    {
      "inputs": [
        {
          "internalType": "uint256",
          "name": "_category",
          "type": "uint256"
        }
      ],
      "name": "redeemTokens",
      "outputs": [],
      "stateMutability": "nonpayable",
      "type": "function"
    },
    {
      "inputs": [],
      "name": "renounceOwnership",
      "outputs": [],
      "stateMutability": "nonpayable",
      "type": "function"
    },
    {
      "inputs": [],
      "name": "symbol",
      "outputs": [
        {
          "internalType": "string",
          "name": "",
          "type": "string"
        }
      ],
      "stateMutability": "view",
      "type": "function"
    },
    {
      "inputs": [],
      "name": "totalSupply",
      "outputs": [
        {
          "internalType": "uint256",
          "name": "",
          "type": "uint256"
        }
      ],
      "stateMutability": "view",
      "type": "function"
    },
    {
      "inputs": [
        {
          "internalType": "address",
          "name": "to",
          "type": "address"
        },
        {
          "internalType": "uint256",
          "name": "amount",
          "type": "uint256"
        }
      ],
      "name": "transfer",
      "outputs": [
        {
          "internalType": "bool",
          "name": "",
          "type": "bool"
        }
      ],
      "stateMutability": "nonpayable",
      "type": "function"
    },
    {
      "inputs": [
        {
          "internalType": "address",
          "name": "from",
          "type": "address"
        },
        {
          "internalType": "address",
          "name": "to",
          "type": "address"
        },
        {
          "internalType": "uint256",
          "name": "amount",
          "type": "uint256"
        }
      ],
      "name": "transferFrom",
      "outputs": [
        {
          "internalType": "bool",
          "name": "",
          "type": "bool"
        }
      ],
      "stateMutability": "nonpayable",
      "type": "function"
    },
    {
      "inputs": [
        {
          "internalType": "address",
          "name": "newOwner",
          "type": "address"
        }
      ],
      "name": "transferOwnership",
      "outputs": [],
      "stateMutability": "nonpayable",
      "type": "function"
    },
    {
      "inputs": [
        {
          "internalType": "address",
          "name": "_receiver",
          "type": "address"
        },
        {
          "internalType": "uint256",
          "name": "_value",
          "type": "uint256"
        }
      ],
      "name": "transferTokens",
      "outputs": [],
      "stateMutability": "nonpayable",
      "type": "function"
    }
  ],
  "bytecode": "0x6080604052735723fea1ddc24609f0150ff0c0b96af77cef0753600660006101000a81548173ffffffffffffffffffffffffffffffffffffffff021916908373ffffffffffffffffffffffffffffffffffffffff1602179055503480156200006657600080fd5b506040518060400160405280600581526020017f446567656e0000000000000000000000000000000000000000000000000000008152506040518060400160405280600381526020017f44474e00000000000000000000000000000000000000000000000000000000008152508160039081620000e4919062000467565b508060049081620000f6919062000467565b505050620001196200010d6200011f60201b60201c565b6200012760201b60201c565b6200054e565b600033905090565b6000600560009054906101000a900473ffffffffffffffffffffffffffffffffffffffff16905081600560006101000a81548173ffffffffffffffffffffffffffffffffffffffff021916908373ffffffffffffffffffffffffffffffffffffffff1602179055508173ffffffffffffffffffffffffffffffffffffffff168173ffffffffffffffffffffffffffffffffffffffff167f8be0079c531659141344cd1fd0a4f28419497f9722a3daafe3b4186f6b6457e060405160405180910390a35050565b600081519050919050565b7f4e487b7100000000000000000000000000000000000000000000000000000000600052604160045260246000fd5b7f4e487b7100000000000000000000000000000000000000000000000000000000600052602260045260246000fd5b600060028204905060018216806200026f57607f821691505b60208210810362000285576200028462000227565b5b50919050565b60008190508160005260206000209050919050565b60006020601f8301049050919050565b600082821b905092915050565b600060088302620002ef7fffffffffffffffffffffffffffffffffffffffffffffffffffffffffffffffff82620002b0565b620002fb8683620002b0565b95508019841693508086168417925050509392505050565b6000819050919050565b6000819050919050565b600062000348620003426200033c8462000313565b6200031d565b62000313565b9050919050565b6000819050919050565b620003648362000327565b6200037c62000373826200034f565b848454620002bd565b825550505050565b600090565b6200039362000384565b620003a081848462000359565b505050565b5b81811015620003c857620003bc60008262000389565b600181019050620003a6565b5050565b601f8211156200041757620003e1816200028b565b620003ec84620002a0565b81016020851015620003fc578190505b620004146200040b85620002a0565b830182620003a5565b50505b505050565b600082821c905092915050565b60006200043c600019846008026200041c565b1980831691505092915050565b600062000457838362000429565b9150826002028217905092915050565b6200047282620001ed565b67ffffffffffffffff8111156200048e576200048d620001f8565b5b6200049a825462000256565b620004a7828285620003cc565b600060209050601f831160018114620004df5760008415620004ca578287015190505b620004d6858262000449565b86555062000546565b601f198416620004ef866200028b565b60005b828110156200051957848901518255600182019150602085019450602081019050620004f2565b8683101562000539578489015162000535601f89168262000429565b8355505b6001600288020188555050505b505050505050565b612307806200055e6000396000f3fe6080604052600436106101355760003560e01c806370a08231116100ab578063a457c2d71161006f578063a457c2d714610409578063a6e158f814610446578063a9059cbb1461046f578063bec3fa17146104ac578063dd62ed3e146104d5578063f2fde38b1461051257610135565b806370a0823114610336578063715018a61461037357806379cc67901461038a5780638da5cb5b146103b357806395d89b41146103de57610135565b8063313ce567116100fd578063313ce5671461023557806339509351146102605780633f3899631461029d57806340c10f19146102c857806342966c68146102f15780636d1b229d1461031a57610135565b806306fdde031461013a578063095ea7b31461016557806312065fe0146101a257806318160ddd146101cd57806323b872dd146101f8575b600080fd5b34801561014657600080fd5b5061014f61053b565b60405161015c9190611659565b60405180910390f35b34801561017157600080fd5b5061018c60048036038101906101879190611714565b6105cd565b604051610199919061176f565b60405180910390f35b3480156101ae57600080fd5b506101b76105f0565b6040516101c49190611799565b60405180910390f35b3480156101d957600080fd5b506101e2610671565b6040516101ef9190611799565b60405180910390f35b34801561020457600080fd5b5061021f600480360381019061021a91906117b4565b61067b565b60405161022c919061176f565b60405180910390f35b34801561024157600080fd5b5061024a6106aa565b6040516102579190611823565b60405180910390f35b34801561026c57600080fd5b5061028760048036038101906102829190611714565b6106af565b604051610294919061176f565b60405180910390f35b3480156102a957600080fd5b506102b26106e6565b6040516102bf9190611659565b60405180910390f35b3480156102d457600080fd5b506102ef60048036038101906102ea9190611714565b610706565b005b3480156102fd57600080fd5b506103186004803603810190610313919061183e565b61071c565b005b610334600480360381019061032f919061183e565b610730565b005b34801561034257600080fd5b5061035d6004803603810190610358919061186b565b610793565b60405161036a9190611799565b60405180910390f35b34801561037f57600080fd5b506103886107db565b005b34801561039657600080fd5b506103b160048036038101906103ac9190611714565b6107ef565b005b3480156103bf57600080fd5b506103c861080f565b6040516103d591906118a7565b60405180910390f35b3480156103ea57600080fd5b506103f3610839565b6040516104009190611659565b60405180910390f35b34801561041557600080fd5b50610430600480360381019061042b9190611714565b6108cb565b60405161043d919061176f565b60405180910390f35b34801561045257600080fd5b5061046d6004803603810190610468919061183e565b610942565b005b34801561047b57600080fd5b5061049660048036038101906104919190611714565b610a6c565b6040516104a3919061176f565b60405180910390f35b3480156104b857600080fd5b506104d360048036038101906104ce9190611714565b610a8f565b005b3480156104e157600080fd5b506104fc60048036038101906104f791906118c2565b610af5565b6040516105099190611799565b60405180910390f35b34801561051e57600080fd5b506105396004803603810190610534919061186b565b610b7c565b005b60606003805461054a90611931565b80601f016020809104026020016040519081016040528092919081815260200182805461057690611931565b80156105c35780601f10610598576101008083540402835291602001916105c3565b820191906000526020600020905b8154815290600101906020018083116105a657829003601f168201915b5050505050905090565b6000806105d8610bff565b90506105e5818585610c07565b600191505092915050565b60003073ffffffffffffffffffffffffffffffffffffffff166370a08231336040518263ffffffff1660e01b815260040161062b91906118a7565b602060405180830381865afa158015610648573d6000803e3d6000fd5b505050506040513d601f19601f8201168201806040525081019061066c9190611977565b905090565b6000600254905090565b600080610686610bff565b9050610693858285610dd0565b61069e858585610e5c565b60019150509392505050565b600090565b6000806106ba610bff565b90506106db8185856106cc8589610af5565b6106d691906119d3565b610c07565b600191505092915050565b60606040518060600160405280603f8152602001612293603f9139905090565b61070e6110d2565b6107188282611150565b5050565b61072d610727610bff565b826112a6565b50565b8061073a33610793565b101561077b576040517f08c379a000000000000000000000000000000000000000000000000000000000815260040161077290611a79565b60405180910390fd5b61078533826105cd565b5061079033826107ef565b50565b60008060008373ffffffffffffffffffffffffffffffffffffffff1673ffffffffffffffffffffffffffffffffffffffff168152602001908152602001600020549050919050565b6107e36110d2565b6107ed6000611473565b565b610801826107fb610bff565b83610dd0565b61080b82826112a6565b5050565b6000600560009054906101000a900473ffffffffffffffffffffffffffffffffffffffff16905090565b60606004805461084890611931565b80601f016020809104026020016040519081016040528092919081815260200182805461087490611931565b80156108c15780601f10610896576101008083540402835291602001916108c1565b820191906000526020600020905b8154815290600101906020018083116108a457829003601f168201915b5050505050905090565b6000806108d6610bff565b905060006108e48286610af5565b905083811015610929576040517f08c379a000000000000000000000000000000000000000000000000000000000815260040161092090611b0b565b60405180910390fd5b6109368286868403610c07565b60019250505092915050565b60018110158015610954575060048111155b610993576040517f08c379a000000000000000000000000000000000000000000000000000000000815260040161098a90611b9d565b60405180910390fd5b600061099e82611539565b9050806109aa33610793565b10156109eb576040517f08c379a00000000000000000000000000000000000000000000000000000000081526004016109e290611c09565b60405180910390fd5b610a1833600660009054906101000a900473ffffffffffffffffffffffffffffffffffffffff1683610e5c565b3373ffffffffffffffffffffffffffffffffffffffff167fe5b754fb1abb7f01b499791d0b820ae3b6af3424ac1c59768edb53f4ec31a9298284604051610a60929190611c29565b60405180910390a25050565b600080610a77610bff565b9050610a84818585610e5c565b600191505092915050565b80610a9933610793565b1015610ada576040517f08c379a0000000000000000000000000000000000000000000000000000000008152600401610ad190611a79565b60405180910390fd5b610ae433826105cd565b50610af033838361067b565b505050565b6000600160008473ffffffffffffffffffffffffffffffffffffffff1673ffffffffffffffffffffffffffffffffffffffff16815260200190815260200160002060008373ffffffffffffffffffffffffffffffffffffffff1673ffffffffffffffffffffffffffffffffffffffff16815260200190815260200160002054905092915050565b610b846110d2565b600073ffffffffffffffffffffffffffffffffffffffff168173ffffffffffffffffffffffffffffffffffffffff1603610bf3576040517f08c379a0000000000000000000000000000000000000000000000000000000008152600401610bea90611cc4565b60405180910390fd5b610bfc81611473565b50565b600033905090565b600073ffffffffffffffffffffffffffffffffffffffff168373ffffffffffffffffffffffffffffffffffffffff1603610c76576040517f08c379a0000000000000000000000000000000000000000000000000000000008152600401610c6d90611d56565b60405180910390fd5b600073ffffffffffffffffffffffffffffffffffffffff168273ffffffffffffffffffffffffffffffffffffffff1603610ce5576040517f08c379a0000000000000000000000000000000000000000000000000000000008152600401610cdc90611de8565b60405180910390fd5b80600160008573ffffffffffffffffffffffffffffffffffffffff1673ffffffffffffffffffffffffffffffffffffffff16815260200190815260200160002060008473ffffffffffffffffffffffffffffffffffffffff1673ffffffffffffffffffffffffffffffffffffffff168152602001908152602001600020819055508173ffffffffffffffffffffffffffffffffffffffff168373ffffffffffffffffffffffffffffffffffffffff167f8c5be1e5ebec7d5bd14f71427d1e84f3dd0314c0f7b2291e5b200ac8c7c3b92583604051610dc39190611799565b60405180910390a3505050565b6000610ddc8484610af5565b90507fffffffffffffffffffffffffffffffffffffffffffffffffffffffffffffffff8114610e565781811015610e48576040517f08c379a0000000000000000000000000000000000000000000000000000000008152600401610e3f90611e54565b60405180910390fd5b610e558484848403610c07565b5b50505050565b600073ffffffffffffffffffffffffffffffffffffffff168373ffffffffffffffffffffffffffffffffffffffff1603610ecb576040517f08c379a0000000000000000000000000000000000000000000000000000000008152600401610ec290611ee6565b60405180910390fd5b600073ffffffffffffffffffffffffffffffffffffffff168273ffffffffffffffffffffffffffffffffffffffff1603610f3a576040517f08c379a0000000000000000000000000000000000000000000000000000000008152600401610f3190611f78565b60405180910390fd5b610f458383836115bf565b60008060008573ffffffffffffffffffffffffffffffffffffffff1673ffffffffffffffffffffffffffffffffffffffff16815260200190815260200160002054905081811015610fcb576040517f08c379a0000000000000000000000000000000000000000000000000000000008152600401610fc29061200a565b60405180910390fd5b8181036000808673ffffffffffffffffffffffffffffffffffffffff1673ffffffffffffffffffffffffffffffffffffffff16815260200190815260200160002081905550816000808573ffffffffffffffffffffffffffffffffffffffff1673ffffffffffffffffffffffffffffffffffffffff168152602001908152602001600020600082825401925050819055508273ffffffffffffffffffffffffffffffffffffffff168473ffffffffffffffffffffffffffffffffffffffff167fddf252ad1be2c89b69c2b068fc378daa952ba7f163c4a11628f55a4df523b3ef846040516110b99190611799565b60405180910390a36110cc8484846115c4565b50505050565b6110da610bff565b73ffffffffffffffffffffffffffffffffffffffff166110f861080f565b73ffffffffffffffffffffffffffffffffffffffff161461114e576040517f08c379a000000000000000000000000000000000000000000000000000000000815260040161114590612076565b60405180910390fd5b565b600073ffffffffffffffffffffffffffffffffffffffff168273ffffffffffffffffffffffffffffffffffffffff16036111bf576040517f08c379a00000000000000000000000000000000000000000000000000000000081526004016111b6906120e2565b60405180910390fd5b6111cb600083836115bf565b80600260008282546111dd91906119d3565b92505081905550806000808473ffffffffffffffffffffffffffffffffffffffff1673ffffffffffffffffffffffffffffffffffffffff168152602001908152602001600020600082825401925050819055508173ffffffffffffffffffffffffffffffffffffffff16600073ffffffffffffffffffffffffffffffffffffffff167fddf252ad1be2c89b69c2b068fc378daa952ba7f163c4a11628f55a4df523b3ef8360405161128e9190611799565b60405180910390a36112a2600083836115c4565b5050565b600073ffffffffffffffffffffffffffffffffffffffff168273ffffffffffffffffffffffffffffffffffffffff1603611315576040517f08c379a000000000000000000000000000000000000000000000000000000000815260040161130c90612174565b60405180910390fd5b611321826000836115bf565b60008060008473ffffffffffffffffffffffffffffffffffffffff1673ffffffffffffffffffffffffffffffffffffffff168152602001908152602001600020549050818110156113a7576040517f08c379a000000000000000000000000000000000000000000000000000000000815260040161139e90612206565b60405180910390fd5b8181036000808573ffffffffffffffffffffffffffffffffffffffff1673ffffffffffffffffffffffffffffffffffffffff1681526020019081526020016000208190555081600260008282540392505081905550600073ffffffffffffffffffffffffffffffffffffffff168373ffffffffffffffffffffffffffffffffffffffff167fddf252ad1be2c89b69c2b068fc378daa952ba7f163c4a11628f55a4df523b3ef8460405161145a9190611799565b60405180910390a361146e836000846115c4565b505050565b6000600560009054906101000a900473ffffffffffffffffffffffffffffffffffffffff16905081600560006101000a81548173ffffffffffffffffffffffffffffffffffffffff021916908373ffffffffffffffffffffffffffffffffffffffff1602179055508173ffffffffffffffffffffffffffffffffffffffff168173ffffffffffffffffffffffffffffffffffffffff167f8be0079c531659141344cd1fd0a4f28419497f9722a3daafe3b4186f6b6457e060405160405180910390a35050565b60006001820361154c57603c90506115ba565b6002820361155d57601e90506115ba565b6003820361156e57600f90506115ba565b6004820361157f57600590506115ba565b6040517f08c379a00000000000000000000000000000000000000000000000000000000081526004016115b190612272565b60405180910390fd5b919050565b505050565b505050565b600081519050919050565b600082825260208201905092915050565b60005b838110156116035780820151818401526020810190506115e8565b60008484015250505050565b6000601f19601f8301169050919050565b600061162b826115c9565b61163581856115d4565b93506116458185602086016115e5565b61164e8161160f565b840191505092915050565b600060208201905081810360008301526116738184611620565b905092915050565b600080fd5b600073ffffffffffffffffffffffffffffffffffffffff82169050919050565b60006116ab82611680565b9050919050565b6116bb816116a0565b81146116c657600080fd5b50565b6000813590506116d8816116b2565b92915050565b6000819050919050565b6116f1816116de565b81146116fc57600080fd5b50565b60008135905061170e816116e8565b92915050565b6000806040838503121561172b5761172a61167b565b5b6000611739858286016116c9565b925050602061174a858286016116ff565b9150509250929050565b60008115159050919050565b61176981611754565b82525050565b60006020820190506117846000830184611760565b92915050565b611793816116de565b82525050565b60006020820190506117ae600083018461178a565b92915050565b6000806000606084860312156117cd576117cc61167b565b5b60006117db868287016116c9565b93505060206117ec868287016116c9565b92505060406117fd868287016116ff565b9150509250925092565b600060ff82169050919050565b61181d81611807565b82525050565b60006020820190506118386000830184611814565b92915050565b6000602082840312156118545761185361167b565b5b6000611862848285016116ff565b91505092915050565b6000602082840312156118815761188061167b565b5b600061188f848285016116c9565b91505092915050565b6118a1816116a0565b82525050565b60006020820190506118bc6000830184611898565b92915050565b600080604083850312156118d9576118d861167b565b5b60006118e7858286016116c9565b92505060206118f8858286016116c9565b9150509250929050565b7f4e487b7100000000000000000000000000000000000000000000000000000000600052602260045260246000fd5b6000600282049050600182168061194957607f821691505b60208210810361195c5761195b611902565b5b50919050565b600081519050611971816116e8565b92915050565b60006020828403121561198d5761198c61167b565b5b600061199b84828501611962565b91505092915050565b7f4e487b7100000000000000000000000000000000000000000000000000000000600052601160045260246000fd5b60006119de826116de565b91506119e9836116de565b9250828201905080821115611a0157611a006119a4565b5b92915050565b7f596f7520646f206e6f74206861766520656e6f75676820446567656e20546f6b60008201527f656e730000000000000000000000000000000000000000000000000000000000602082015250565b6000611a636023836115d4565b9150611a6e82611a07565b604082019050919050565b60006020820190508181036000830152611a9281611a56565b9050919050565b7f45524332303a2064656372656173656420616c6c6f77616e63652062656c6f7760008201527f207a65726f000000000000000000000000000000000000000000000000000000602082015250565b6000611af56025836115d4565b9150611b0082611a99565b604082019050919050565b60006020820190508181036000830152611b2481611ae8565b9050919050565b7f596f7520686176652073706563696669656420616e20696e76616c6964206f7060008201527f74696f6e00000000000000000000000000000000000000000000000000000000602082015250565b6000611b876024836115d4565b9150611b9282611b2b565b604082019050919050565b60006020820190508181036000830152611bb681611b7a565b9050919050565b7f496e73756666696369656e7420446567656e20546f6b656e7300000000000000600082015250565b6000611bf36019836115d4565b9150611bfe82611bbd565b602082019050919050565b60006020820190508181036000830152611c2281611be6565b9050919050565b6000604082019050611c3e600083018561178a565b611c4b602083018461178a565b9392505050565b7f4f776e61626c653a206e6577206f776e657220697320746865207a65726f206160008201527f6464726573730000000000000000000000000000000000000000000000000000602082015250565b6000611cae6026836115d4565b9150611cb982611c52565b604082019050919050565b60006020820190508181036000830152611cdd81611ca1565b9050919050565b7f45524332303a20617070726f76652066726f6d20746865207a65726f2061646460008201527f7265737300000000000000000000000000000000000000000000000000000000602082015250565b6000611d406024836115d4565b9150611d4b82611ce4565b604082019050919050565b60006020820190508181036000830152611d6f81611d33565b9050919050565b7f45524332303a20617070726f766520746f20746865207a65726f20616464726560008201527f7373000000000000000000000000000000000000000000000000000000000000602082015250565b6000611dd26022836115d4565b9150611ddd82611d76565b604082019050919050565b60006020820190508181036000830152611e0181611dc5565b9050919050565b7f45524332303a20696e73756666696369656e7420616c6c6f77616e6365000000600082015250565b6000611e3e601d836115d4565b9150611e4982611e08565b602082019050919050565b60006020820190508181036000830152611e6d81611e31565b9050919050565b7f45524332303a207472616e736665722066726f6d20746865207a65726f20616460008201527f6472657373000000000000000000000000000000000000000000000000000000602082015250565b6000611ed06025836115d4565b9150611edb82611e74565b604082019050919050565b60006020820190508181036000830152611eff81611ec3565b9050919050565b7f45524332303a207472616e7366657220746f20746865207a65726f206164647260008201527f6573730000000000000000000000000000000000000000000000000000000000602082015250565b6000611f626023836115d4565b9150611f6d82611f06565b604082019050919050565b60006020820190508181036000830152611f9181611f55565b9050919050565b7f45524332303a207472616e7366657220616d6f756e742065786365656473206260008201527f616c616e63650000000000000000000000000000000000000000000000000000602082015250565b6000611ff46026836115d4565b9150611fff82611f98565b604082019050919050565b6000602082019050818103600083015261202381611fe7565b9050919050565b7f4f776e61626c653a2063616c6c6572206973206e6f7420746865206f776e6572600082015250565b60006120606020836115d4565b915061206b8261202a565b602082019050919050565b6000602082019050818103600083015261208f81612053565b9050919050565b7f45524332303a206d696e7420746f20746865207a65726f206164647265737300600082015250565b60006120cc601f836115d4565b91506120d782612096565b602082019050919050565b600060208201905081810360008301526120fb816120bf565b9050919050565b7f45524332303a206275726e2066726f6d20746865207a65726f2061646472657360008201527f7300000000000000000000000000000000000000000000000000000000000000602082015250565b600061215e6021836115d4565b915061216982612102565b604082019050919050565b6000602082019050818103600083015261218d81612151565b9050919050565b7f45524332303a206275726e20616d6f756e7420657863656564732062616c616e60008201527f6365000000000000000000000000000000000000000000000000000000000000602082015250565b60006121f06022836115d4565b91506121fb82612194565b604082019050919050565b6000602082019050818103600083015261221f816121e3565b9050919050565b7f4f7074696f6e20737065636966696564206973206e6f742076616c6964000000600082015250565b600061225c601d836115d4565b915061226782612226565b602082019050919050565b6000602082019050818103600083015261228b8161224f565b905091905056fe6974656d20313a2049726f6e6d616e20536869656c64200a204974656d20323a2053746f726d627265616b6572200a204974656d20333a20556e69636f726ea26469706673582212203f9653f999bb05e802871b972a09fc56fd4d2c8b8e1d0497822e85a0d0ab0a6064736f6c63430008140033",
  "linkReferences": {},
  "deployedLinkReferences": {}
}